:020000040800F2
:1000000000280020C109000851090008570900080C
:100010005D09000863090008690900080000000084
:100020000000000000000000000000006F09000850
:100030007B090008000000008709000893090008F8
:10004000090A0008090A0008090A0008090A000844
:10005000090A0008090A0008090A0008090A000834
:10006000090A0008090A0008090A0008090A000824
:10007000090A0008090A0008090A0008090A000814
:10008000090A0008090A0008090A0008090A000804
:10009000090A0008090A0008090A0008090A0008F4
:1000A000090A0008090A0008090A0008090A0008E4
:1000B000A1090008090A000800000000090A000858
:1000C000090A00080000000000000000090A0008FA
:1000D00000000000090A0008090A000800000000EA
:1000E000090A0008090A0008090A000800000000BF
:1000F0000000000000000000000000000000000000
:0C01000000000000000000005FF808F1A3
:10010C0010B5054C237833B9044B13B10448AFF345
:10011C0000800123237010BD2C0000200000000083
:10012C005420000808B5034B1BB103490348AFF337
:10013C00008008BD000000003000002054200008A2
:10014C0080B500AF00F05CFC00F03AF800F0C0F8AD
:10015C0000F072F8164801F0BFFB164B1B68013318
:10016C00144A1360134B1B683B2B07DD114B002209
:10017C001A60114B1B6801330F4A13600E4B1B683E
:10018C003B2B07DD0C4B00221A600C4B1B68013318
:10019C000A4A1360094B1B68172B02DD074B002220
:1001AC001A6000F0E9F84FF47A7000F08BFCD4E799
:1001BC004C0000200800002004000020000000205B
:1001CC0080B590B000AF07F1180328220021184623
:1001DC0001F032FF3B1D00221A605A609A60DA600F
:1001EC001A610223BB610123BB621023FB62002353
:1001FC007B6307F11803184600F042FF0346002BFF
:10020C0001D000F043FB0F237B600023BB60002375
:10021C00FB6000233B6100237B613B1D00211846E2
:10022C0001F0AEF90346002B01D000F02FFB00BF0C
:10023C004037BD4680BD000080B586B000AF07F1E9
:10024C00080300221A605A609A60DA603B4600226A
:10025C001A605A601D4B4FF080421A601B4B41F6DE
:10026C003F725A60194B00229A60184BF922DA60DF
:10027C00164B00221A61154B00229A61134801F0AB
:10028C00DBFA0346002B01D000F000FB4FF4805347
:10029C00BB6007F1080319460C4801F059FC0346F2
:1002AC00002B01D000F0F2FA00233B6000237B60AE
:1002BC003B461946054801F031FE0346002B01D0A0
:1002CC0000F0E4FA00BF1837BD4680BD4C0000209A
:1002DC0080B586B000AF07F1080300221A605A609F
:1002EC009A60DA60214B9B69204A43F004039361C6
:1002FC001E4B9B6903F004037B607B681B4B9B6963
:10030C001A4A43F008039361184B9B6903F00803E6
:10031C003B603B6800224FF47C71154800F07EFE78
:10032C0000227F21134800F079FE4FF47C73BB60F0
:10033C000123FB6000233B6102237B6107F108036F
:10034C0019460B4800F0F0FC7F23BB600123FB60D7
:10035C0000233B6102237B6107F108031946054822
:10036C0000F0E2FC00BF1837BD4680BD0010024013
:10037C0000080140000C014080B400AF1A4B1B6810
:10038C001A4A82FB03129210DB17D31A184A136015
:10039C00154B1968154B83FB01239A10CB17D21AF6
:1003AC0013469B0013445B00CA1A114B5A60114B45
:1003BC001B680E4A82FB03129210DB17D31A0C4AED
:1003CC0093600C4B1968094B83FB01239A10CB17D4
:1003DC00D21A13469B0013445B00CA1A044BDA6012
:1003EC0000BFBD4680BC7047000000206766666693
:1003FC000C0000200400002080B582B000AF7860B3
:10040C0001224021294800F009FE012280212748C1
:10041C0000F004FE01224FF48071244800F0FEFD30
:10042C0001224FF40071214800F0F8FD7B68032B8A
:10043C0038D801A252F823F0550400086B040008C8
:10044C008104000899040008194B1B68184600F039
:10045C006BF800224021154800F0E0FD22E0144B1F
:10046C005B68184600F060F8002280210F4800F00D
:10047C00D5FD17E00E4B9B68184600F055F800228E
:10048C004FF48071094800F0C9FD0BE0084BDB68A4
:10049C00184600F049F800224FF40071034800F0B0
:1004AC00BDFD00BF00BF0837BD4680BD0008014040
:1004BC000C00002080B582B000AF78607B681B68B0
:1004CC00B3F1804F25D1154B1B681846FFF794FFED
:1004DC00124B1B680133114A1360104B1B6804222A
:1004EC00934202DB0D4B00221A600D4B1B68013B43
:1004FC000B4A13600A4B1B68002B0ADC084B0422C6
:10050C001A601021074800F0A1FD2021054800F0D9
:10051C009DFD00BF0837BD4680BD00BF48000020D0
:10052C001C0000200008014080B582B000AF78604C
:10053C007B68092B00F2808101A252F823F000BFE6
:10054C0075050008BD050008050600084D060008E5
:10055C0095060008DD060008250700086D07000851
:10056C00B5070008FD07000800220121C64800F06D
:10057C0055FD00220221C44800F050FD0022042148
:10058C00C14800F04BFD00220821BF4800F046FD99
:10059C0000221021BC4800F041FD00222021BA4865
:1005AC0000F03CFD01224021B74800F037FD67E127
:1005BC0001220121B44800F031FD00220221B24891
:1005CC0000F02CFD00220421AF4800F027FD012291
:1005DC000821AD4800F022FD01221021AA4800F0AC
:1005EC001DFD01222021A84800F018FD0122402108
:1005FC00A54800F013FD43E100220121A24800F0C0
:10060C000DFD00220221A04800F008FD012204216A
:10061C009D4800F003FD002208219B4800F0FEFCE1
:10062C0000221021984800F0F9FC01222021964864
:10063C0000F0F4FC00224021934800F0EFFC1FE195
:10064C0000220121904800F0E9FC002202218E4892
:10065C0000F0E4FC002204218B4800F0DFFC0022B7
:10066C000821894800F0DAFC01221021864800F0AC
:10067C00D5FC01222021844800F0D0FC002240212E
:10068C00814800F0CBFCFBE0012201217E4800F008
:10069C00C5FC002202217C4800F0C0FC0022042191
:1006AC00794800F0BBFC01220821774800F0B6FC29
:1006BC0001221021744800F0B1FC00222021724864
:1006CC0000F0ACFC002240216F4800F0A7FCD7E002
:1006DC00002201216C4800F0A1FC012202216A4891
:1006EC0000F09CFC00220421674800F097FC0022DB
:1006FC000821654800F092FC01221021624800F0AC
:10070C008DFC00222021604800F088FC0022402152
:10071C005D4800F083FCB3E0002201215A4800F050
:10072C007DFC01220221584800F078FC00220421B3
:10073C00554800F073FC00220821534800F06EFC71
:10074C0000221021504800F069FC002220214E4864
:10075C0000F064FC002240214B4800F05FFC8FE06D
:10076C0000220121484800F059FC00220221464891
:10077C0000F054FC00220421434800F04FFC0122FD
:10078C000821414800F04AFC012210213E4800F0AB
:10079C0045FC012220213C4800F040FC0122402174
:1007AC00394800F03BFC6BE000220121364800F098
:1007BC0035FC00220221344800F030FC00220421D8
:1007CC00314800F02BFC002208212F4800F026FCB9
:1007DC00002210212C4800F021FC002220212A4864
:1007EC0000F01CFC00224021274800F017FC47E0D9
:1007FC0000220121244800F011FC00220221224891
:10080C0000F00CFC002204211F4800F007FC002221
:10081C0008211D4800F002FC012210211A4800F0AA
:10082C00FDFB00222021184800F0F8FB002240219B
:10083C00154800F0F3FB23E001220121124800F0DF
:10084C00EDFB01220221104800F0E8FB01220421FB
:10085C000D4800F0E3FB012208210B4800F0DEFB01
:10086C0001221021084800F0D9FB01222021064862
:10087C0000F0D4FB01224021034800F0CFFB00BF65
:10088C0000BF0837BD4680BD000C014080B400AFEE
:10089C0072B600BFFEE7000080B485B000AF154B08
:1008AC009B69144A43F001039361124B9B6903F05B
:1008BC000103BB60BB680F4BDB690E4A43F08053EE
:1008CC00D3610C4BDB6903F080537B607B680A4B74
:1008DC005B68FB60FB6823F0E063FB60FB6843F044
:1008EC008063FB60044AFB68536000BF1437BD464D
:1008FC0080BC7047001002400000014080B584B0FD
:10090C0000AF78607B681B68B3F1804F13D10C4B40
:10091C00DB690B4A43F00103D361094BDB6903F03C
:10092C000103FB60FB68002200211C2000F0C5F9CC
:10093C001C2000F0DEF900BF1037BD4680BD00BFA3
:10094C000010024080B400AFFEE780B400AFFEE7B9
:10095C0080B400AFFEE780B400AFFEE780B400AF18
:10096C00FEE780B400AF00BFBD4680BC704780B4CA
:10097C0000AF00BFBD4680BC704780B400AF00BF65
:10098C00BD4680BC704780B500AF00F07FF800BF5B
:10099C0080BD000080B500AF024800F0E9FF00BF49
:1009AC0080BD00BF4C00002080B400AF00BFBD462E
:1009BC0080BC7047FFF7F8FF0B480C490C4A00232A
:1009CC0002E0D458C4500433C4188C42F9D3094AF9
:1009DC00094C002301E013600432A242FBD301F066
:1009EC0007FBFFF7ADFB7047000000202C00002038
:1009FC00982000082C00002098000020FEE7000042
:100A0C0080B500AF084B1B68074A43F01003136016
:100A1C00032000F047F90F2000F008F8FFF73CFF27
:100A2C000023184680BD00BF0020024080B582B074
:100A3C0000AF7860124B1A68124B1B7819464FF4B2
:100A4C007A73B3FBF1F3B2FBF3F3184600F05FF9E2
:100A5C000346002B01D001230EE07B680F2B0AD834
:100A6C00002279684FF0FF3000F027F9064A7B68C6
:100A7C001360002300E0012318460837BD4680BDF3
:100A8C0020000020280000202400002080B400AFAB
:100A9C00054B1B781A46054B1B681344034A13601D
:100AAC0000BFBD4680BC7047280000209400002089
:100ABC0080B400AF024B1B681846BD4680BC704723
:100ACC009400002080B584B000AF7860FFF7F0FF91
:100ADC00B8607B68FB60FB68B3F1FF3F05D00A4B45
:100AEC001B781A46FB681344FB6000BFFFF7E0FF5E
:100AFC000246BB68D31AFA689A42F7D800BF00BF07
:100B0C001037BD4680BD00BF2800002080B485B0E2
:100B1C0000AF78607B6803F00703FB600C4BDB686D
:100B2C00BB60BA684FF6FF031340BB60FB681A0248
:100B3C00BB68134343F0BF6343F40033BB60044A08
:100B4C00BB68D36000BF1437BD4680BC704700BF84
:100B5C0000ED00E080B400AF044BDB681B0A03F02F
:100B6C0007031846BD4680BC704700BF00ED00E08F
:100B7C0080B483B000AF0346FB7197F90730002BAC
:100B8C000BDBFB7903F01F02064997F907305B0971
:100B9C00012000FA02F241F8232000BF0C37BD46B9
:100BAC0080BC704700E100E080B483B000AF034626
:100BBC003960FB7197F90730002B0ADB3B68DAB21E
:100BCC000C4997F907301201D2B20B4483F8002379
:100BDC000AE03B68DAB20849FB7903F00F03043BE7
:100BEC001201D2B20B441A7600BF0C37BD4680BC42
:100BFC00704700BF00E100E000ED00E080B489B078
:100C0C0000AFF860B9607A60FB6803F00703FB6122
:100C1C00FB69C3F10703042B28BF0423BB61FB69E9
:100C2C000433062B02D9FB69033B00E000237B61F4
:100C3C004FF0FF32BB6902FA03F3DA43BB681A4088
:100C4C007B699A404FF0FF317B6901FA03F3D9437A
:100C5C007B680B40134318462437BD4680BC704755
:100C6C0080B582B000AF78607B68013BB3F1807FC8
:100C7C0001D301230FE00A4A7B68013B53600F212B
:100C8C004FF0FF30FFF790FF054B00229A60044BAA
:100C9C0007221A60002318460837BD4680BD00BFE6
:100CAC0010E000E080B582B000AF78607868FFF7A4
:100CBC002DFF00BF0837BD4680BD80B586B000AFA4
:100CCC000346B9607A60FB7300237B61FFF742FF38
:100CDC0078617A68B9687869FFF790FF024697F9EE
:100CEC000F3011461846FFF75FFF00BF1837BD469F
:100CFC0080BD80B582B000AF0346FB7197F9073019
:100D0C001846FFF735FF00BF0837BD4680BD80B5DC
:100D1C0082B000AF78607868FFF7A2FF03461846F0
:100D2C000837BD4680BD000080B48BB000AF786042
:100D3C00396000237B6200233B6248E101227B6A1D
:100D4C0002FA03F3FB613B681B68FA691340BB6151
:100D5C00BA69FB699A4240F037813B685B68A34AE9
:100D6C0093425ED0A14A934275D8A14A934258D07F
:100D7C009F4A93426FD89F4A934252D09D4A9342C6
:100D8C0069D89D4A93424CD09B4A934263D89B4A64
:100D9C00934246D0994A93425DD8122B2AD8122BF3
:100DAC0059D801A252F823F02F0E0008090E0008A2
:100DBC001B0E00085D0E0008630E0008630E000891
:100DCC00630E0008630E0008630E0008630E000833
:100DDC00630E0008630E0008630E0008630E000823
:100DEC00630E0008630E0008630E0008110E000865
:100DFC00250E0008824A934213D02CE03B68DB6836
:100E0C003B6229E03B68DB6804333B6224E03B68CF
:100E1C00DB6808333B621FE03B68DB680C333B62EA
:100E2C001AE03B689B68002B02D104233B6213E061
:100E3C003B689B68012B05D108233B627B68FA69F0
:100E4C001A6109E008233B627B68FA695A6103E086
:100E5C0000233B6200E000BFBB69FF2B01D87B681D
:100E6C0001E07B6804337B61BB69FF2B02D87B6A92
:100E7C009B0002E07B6A083B9B003B617B691A6824
:100E8C000F213B6901FA03F3DB431A40396A3B69D2
:100E9C0001FA03F31A437B691A603B685B6803F041
:100EAC008053002B00F09080564B9B69554A43F0C1
:100EBC0001039361534B9B6903F00103BB60BB6857
:100ECC00514A7B6A9B08023352F82330FB607B6AE1
:100EDC0003F003039B000F2202FA03F3DB43FA68CF
:100EEC001340FB607B68494A93420DD07B68484AAB
:100EFC00934207D07B68474A934201D1022304E016
:100F0C00032302E0012300E000237A6A02F00302CB
:100F1C0092009340FA681343FB603B497B6A9B0841
:100F2C000233FA6841F823203B685B6803F48013B2
:100F3C00002B06D0384B9A683749BB6913438B603A
:100F4C0006E0354B9A68BB69DB43334913408B6031
:100F5C003B685B6803F40013002B06D02E4BDA6859
:100F6C002D49BB691343CB6006E02B4BDA68BB6998
:100F7C00DB4329491340CB603B685B6803F40033C7
:100F8C00002B06D0244B5A682349BB6913434B6092
:100F9C0006E0214B5A68BB69DB431F4913404B6089
:100FAC003B685B6803F48033002B06D01A4B1A683D
:100FBC001949BB6913430B6006E0174B1A68BB69F0
:100FCC00DB43154913400B607B6A01337B623B6842
:100FDC001A687B6A22FA03F3002B7FF4AFAE00BFD2
:100FEC0000BF2C37BD4680BC704700BF00003210DC
:100FFC00000031100000221000002110000012101F
:10100C0000001110001002400000014000080140D7
:10101C00000C0140001001400004014080B483B07A
:10102C0000AF78600B467B8013467B707B78002B7F
:10103C0003D07A887B681A6103E07B881A047B688A
:10104C001A6100BF0C37BD4680BC704780B485B0B8
:10105C0000AF78600B467B807B68DB68FB607A882E
:10106C00FB6813401A04FB68D9437B880B401A4376
:10107C007B681A6100BF1437BD4680BC7047000006
:10108C0080B586B000AF78607B68002B01D101235E
:10109C006CE27B681B6803F00103002B00F0878077
:1010AC00924B5B6803F00C03042B0CD08F4B5B68EA
:1010BC0003F00C03082B12D18C4B5B6803F48033C8
:1010CC00B3F5803F0BD1894B1B6803F40033002B25
:1010DC006CD07B685B68002B68D1012346E27B688F
:1010EC005B68B3F5803F06D1804B1B687F4A43F4A5
:1010FC00803313602EE07B685B68002B0CD17B4B3C
:10110C001B687A4A23F480331360784B1B68774A48
:10111C0023F4802313601DE07B685B68B3F5A02F7C
:10112C000CD1724B1B68714A43F4802313606F4BD4
:10113C001B686E4A43F4803313600BE06B4B1B68E7
:10114C006A4A23F480331360684B1B68674A23F4A4
:10115C00802313607B685B68002B13D0FFF7A8FC1F
:10116C00386108E0FFF7A4FC02463B69D31A642BF4
:10117C0001D90323FAE15D4B1B6803F40033002B08
:10118C00F0D014E0FFF794FC386108E0FFF790FC16
:10119C0002463B69D31A642B01D90323E6E1534B76
:1011AC001B6803F40033002BF0D100E000BF7B6818
:1011BC001B6803F00203002B63D04C4B5B6803F0FD
:1011CC000C03002B0BD0494B5B6803F00C03082B72
:1011DC001CD1464B5B6803F48033002B16D1434B78
:1011EC001B6803F00203002B05D07B681B69012BE5
:1011FC0001D00123BAE13D4B1B6823F0F8027B6858
:10120C005B69DB00394913430B603AE07B681B696F
:10121C00002B20D0364B01221A60FFF749FC3861B5
:10122C0008E0FFF745FC02463B69D31A022B01D9B3
:10123C0003239BE12D4B1B6803F00203002BF0D022
:10124C002A4B1B6823F0F8027B685B69DB0027499B
:10125C0013430B6015E0264B00221A60FFF728FCA5
:10126C00386108E0FFF724FC02463B69D31A022BD5
:10127C0001D903237AE11D4B1B6803F00203002BF9
:10128C00F0D17B681B6803F00803002B3AD07B6815
:10129C009B69002B19D0174B01221A60FFF708FC31
:1012AC00386108E0FFF704FC02463B69D31A022BB5
:1012BC0001D903235AE10D4B5B6A03F00203002BA7
:1012CC00F0D0012000F09AFA1CE00A4B00221A60C0
:1012DC00FFF7EEFB38610FE0FFF7EAFB02463B69D4
:1012EC00D31A022B08D9032340E100BF001002409F
:1012FC0000004242800442429E4B5B6A03F00203B0
:10130C00002BE9D17B681B6803F00403002B00F071
:10131C00A6800023FB75974BDB6903F08053002BF1
:10132C000DD1944BDB69934A43F08053D361914BBD
:10133C00DB6903F08053BB60BB680123FB758E4BEC
:10134C001B6803F48073002B18D18B4B1B688A4AE3
:10135C0043F480731360FFF7ABFB386108E0FFF7D1
:10136C00A7FB02463B69D31A642B01D90323FDE08A
:10137C00814B1B6803F48073002BF0D07B68DB6817
:10138C00012B06D17B4B1B6A7A4A43F00103136293
:10139C002DE07B68DB68002B0CD1764B1B6A754A01
:1013AC0023F001031362734B1B6A724A23F004038C
:1013BC0013621CE07B68DB68052B0CD16D4B1B6A40
:1013CC006C4A43F0040313626A4B1B6A694A43F08C
:1013DC00010313620BE0674B1B6A664A23F001039F
:1013EC001362644B1B6A634A23F0040313627B6829
:1013FC00DB68002B15D0FFF75BFB38610AE0FFF7C9
:10140C0057FB02463B69D31A41F28832934201D909
:10141C000323ABE0574B1B6A03F00203002BEED007
:10142C0014E0FFF745FB38610AE0FFF741FB024689
:10143C003B69D31A41F28832934201D9032395E0D8
:10144C004C4B1B6A03F00203002BEED1FB7D012BEE
:10145C0005D1484BDB69474A23F08053D3617B6845
:10146C00DB69002B00F08180424B5B6803F00C03BE
:10147C00082B61D07B68DB69022B46D13F4B0022E5
:10148C001A60FFF715FB386108E0FFF711FB024605
:10149C003B69D31A022B01D9032367E0354B1B6838
:1014AC0003F00073002BF0D17B681B6AB3F5803F0F
:1014BC0008D1304B5B6823F400327B689B682D4964
:1014CC0013434B602B4B5B6823F474127B68196AD3
:1014DC007B685B6A0B43274913434B60274B012204
:1014EC001A60FFF7E5FA386108E0FFF7E1FA024607
:1014FC003B69D31A022B01D9032337E01D4B1B6820
:10150C0003F00073002BF0D02FE01C4B00221A606C
:10151C00FFF7CEFA386108E0FFF7CAFA02463B69DA
:10152C00D31A022B01D9032320E0124B1B6803F0C2
:10153C000073002BF0D118E07B68DB69012B01D123
:10154C00012313E00B4B5B68FB60FB6803F48032F8
:10155C007B681B6A9A4206D1FB6803F470127B68A5
:10156C005B6A9A4201D0012300E000231846183729
:10157C00BD4680BD00100240007000406000424239
:10158C0080B584B000AF786039607B68002B01D1E6
:10159C000123D0E06A4B1B6803F007033A689A42B8
:1015AC0010D9674B1B6823F0070265493B6813434E
:1015BC000B60634B1B6803F007033A689A4201D037
:1015CC000123B8E07B681B6803F00203002B20D0DA
:1015DC007B681B6803F00403002B05D0594B5B6838
:1015EC00584A43F4E06353607B681B6803F00803BC
:1015FC00002B05D0534B5B68524A43F46053536045
:10160C00504B5B6823F0F0027B689B684D49134399
:10161C004B607B681B6803F00103002B40D07B6898
:10162C005B68012B07D1474B1B6803F40033002B7D
:10163C0015D101237FE07B685B68022B07D1414BFE
:10164C001B6803F00073002B09D1012373E03D4BA1
:10165C001B6803F00203002B01D101236BE0394B13
:10166C005B6823F003027B685B68364913434B606D
:10167C00FFF71EFAF8600AE0FFF71AFA0246FB6859
:10168C00D31A41F28832934201D9032353E02D4BF4
:10169C005B6803F00C027B685B689B009A42EBD1A1
:1016AC00274B1B6803F007033A689A4210D2244B6D
:1016BC001B6823F0070222493B6813430B60204B45
:1016CC001B6803F007033A689A4201D0012332E009
:1016DC007B681B6803F00403002B08D0194B5B6874
:1016EC0023F4E0627B68DB68164913434B607B682C
:1016FC001B6803F00803002B09D0124B5B6823F422
:10170C0060527B681B69DB000E4913434B6000F091
:10171C0021F802460B4B5B681B0903F00F030A49C7
:10172C00CB5C22FA03F3094A1360094B1B68184679
:10173C00FFF77CF9002318461037BD4680BD00BF6B
:10174C0000200240001002406C2000082000002005
:10175C002400002080B487B000AF0023FB6000237E
:10176C00BB6000237B6100237B6000233B611E4B2D
:10177C005B68FB60FB6803F00C03042B02D0082BA6
:10178C0003D027E0194B3B6127E0FB689B0C03F06F
:10179C000F03174AD35C7B60FB6803F48033002B88
:1017AC0010D0114B5B685B0C03F00103114AD35C46
:1017BC00BB607B680D4A02FB03F2BB68B2FBF3F320
:1017CC007B6104E07B680C4A02FB03F37B617B6961
:1017DC003B6102E0054B3B6100BF3B6918461C377F
:1017EC00BD4680BC704700BF0010024000127A005A
:1017FC007C2000088C20000800093D0080B485B0D6
:10180C0000AF78600A4B1B680A4AA2FB03235B0AF1
:10181C007A6802FB03F3FB6000BFFB685A1EFA6098
:10182C00002BF9D100BF00BF1437BD4680BC7047F8
:10183C0020000020D34D621080B582B000AF7860DC
:10184C007B68002B01D1012341E07B6893F83D308C
:10185C00DBB2002B06D17B68002283F83C20786831
:10186C00FFF74CF87B68022283F83D207B681A68EE
:10187C007B6804331946104600F056FA7B68012247
:10188C0083F846207B68012283F83E207B68012286
:10189C0083F83F207B68012283F840207B6801227B
:1018AC0083F841207B68012283F842207B68012267
:1018BC0083F843207B68012283F844207B68012253
:1018CC0083F845207B68012283F83D2000231846CD
:1018DC000837BD4680BD000080B485B000AF78608D
:1018EC007B6893F83D30DBB2012B01D0012335E04E
:1018FC007B68022283F83D207B681B68DA687B6872
:10190C001B6842F00102DA607B681B68164A93423E
:10191C0009D07B681B68B3F1804F04D07B681B68CF
:10192C00124A934211D17B681B689B6803F0070332
:10193C00FB60FB68062B10D07B681B681A687B6801
:10194C001B6842F001021A6007E07B681B681A688A
:10195C007B681B6842F001021A600023184614379A
:10196C00BD4680BC704700BF002C01400004004005
:10197C0080B584B000AF78607B681B68DB68FB6067
:10198C007B681B681B69BB60BB6803F00203002B00
:10199C0020D0FB6803F00203002B1BD07B681B6874
:1019AC006FF002021A617B6801221A777B681B6850
:1019BC009B6903F00303002B03D0786800F098F9BF
:1019CC0005E0786800F08BF9786800F09AF97B688C
:1019DC0000221A77BB6803F00403002B20D0FB68AD
:1019EC0003F00403002B1BD07B681B686FF0040210
:1019FC001A617B6802221A777B681B689B6903F467
:101A0C004073002B03D0786800F072F905E0786819
:101A1C0000F065F9786800F074F97B6800221A7799
:101A2C00BB6803F00803002B20D0FB6803F008030D
:101A3C00002B1BD07B681B686FF008021A617B6857
:101A4C0004221A777B681B68DB6903F00303002B05
:101A5C0003D0786800F04CF905E0786800F03FF9A5
:101A6C00786800F04EF97B6800221A77BB6803F0A7
:101A7C001003002B20D0FB6803F01003002B1BD0AD
:101A8C007B681B686FF010021A617B6808221A775A
:101A9C007B681B68DB6903F44073002B03D0786808
:101AAC0000F026F905E0786800F019F9786800F084
:101ABC0028F97B6800221A77BB6803F00103002B1E
:101ACC000CD0FB6803F00103002B07D07B681B686C
:101ADC006FF001021A617868FEF7ECFCBB6803F04A
:101AEC008003002B0CD0FB6803F08003002B07D085
:101AFC007B681B686FF080021A61786800F06FFADF
:101B0C00BB6803F04003002B0CD0FB6803F04003D0
:101B1C00002B07D07B681B686FF040021A61786855
:101B2C0000F0F8F8BB6803F02003002B0CD0FB6826
:101B3C0003F02003002B07D07B681B686FF020029A
:101B4C001A61786800F042FA00BF1037BD4680BDBC
:101B5C0080B584B000AF786039600023FB737B687C
:101B6C0093F83C30012B01D10223B4E07B680122B5
:101B7C0083F83C207B68022283F83D207B681B683D
:101B8C009B68BB60BB6823F07703BB60BB6823F426
:101B9C007F43BB607B681B68BA689A603B681B68B4
:101BAC00B3F5005F3ED0B3F5005F00F28780B3F56C
:101BBC00805F00F08680B3F5805F7FD8702B1AD0E1
:101BCC00702B7BD8602B50D0602B77D8502B3CD00F
:101BDC00502B73D8402B58D0402B6FD8302B64D05F
:101BEC00302B6BD8202B60D0202B67D8002B5CD0EF
:101BFC00102B5AD062E07B6818683B6899683B6888
:101C0C005A683B68DB6800F06AF97B681B689B6864
:101C1C00BB60BB6843F07703BB607B681B68BA682A
:101C2C009A604FE07B6818683B6899683B685A6813
:101C3C003B68DB6800F053F97B681B689A687B682B
:101C4C001B6842F480429A603CE07B6818683B68F1
:101C5C0059683B68DB681A4600F0CAF87B681B6859
:101C6C005021184600F021F92CE07B6818683B687D
:101C7C0059683B68DB681A4600F0E8F87B681B681B
:101C8C006021184600F011F91CE07B6818683B686D
:101C9C0059683B68DB681A4600F0AAF87B681B6839
:101CAC004021184600F001F90CE07B681A683B688B
:101CBC001B681946104600F0F8F803E00123FB738B
:101CCC0000E000BF7B68012283F83D207B68002286
:101CDC0083F83C20FB7B18461037BD4680BD80B492
:101CEC0083B000AF786000BF0C37BD4680BC704736
:101CFC0080B483B000AF786000BF0C37BD4680BCA9
:101D0C00704780B483B000AF786000BF0C37BD461D
:101D1C0080BC704780B483B000AF786000BF0C37D4
:101D2C00BD4680BC7047000080B485B000AF7860C1
:101D3C0039607B681B68FB607B682B4A934207D039
:101D4C007B68B3F1804F03D07B68284A934208D15B
:101D5C00FB6823F07003FB603B685B68FA68134315
:101D6C00FB607B68204A934207D07B68B3F1804FBD
:101D7C0003D07B681D4A934208D1FB6823F440735F
:101D8C00FB603B68DB68FA681343FB60FB6823F07D
:101D9C0080023B685B691343FB607B68FA681A60DE
:101DAC003B689A687B68DA623B681A687B689A625F
:101DBC007B680D4A934203D13B681A697B681A63AE
:101DCC007B6801225A617B681B6903F00103002BBD
:101DDC0005D07B681B6923F001027B681A6100BF88
:101DEC001437BD4680BC7047002C014000040040F5
:101DFC0080B487B000AFF860B9607A60FB681B6A8A
:101E0C007B61FB681B6A23F00102FB681A62FB68AA
:101E1C009B693B613B6923F0F0033B617B681B01D1
:101E2C003A6913433B617B6923F00A037B617A694E
:101E3C00BB6813437B61FB683A699A61FB687A69FA
:101E4C001A6200BF1C37BD4680BC704780B487B097
:101E5C0000AFF860B9607A60FB681B6A7B61FB6855
:101E6C001B6A23F01002FB681A62FB689B693B61DA
:101E7C003B6923F470433B617B681B033A69134352
:101E8C003B617B6923F0A0037B61BB681B017A6912
:101E9C0013437B61FB683A699A61FB687A691A6241
:101EAC0000BF1C37BD4680BC704780B485B000AF06
:101EBC00786039607B689B68FB60FB6823F070037B
:101ECC00FB603A68FB68134343F00703FB607B68D5
:101EDC00FA689A6000BF1437BD4680BC704780B466
:101EEC0087B000AFF860B9607A603B60FB689B68B4
:101EFC007B617B6923F47F437B613B681A027B68BF
:101F0C001A43BB6813437A6913437B61FB687A6994
:101F1C009A6000BF1C37BD4680BC704780B485B04A
:101F2C0000AF786039607B6893F83C30012B01D1AD
:101F3C00022341E07B68012283F83C207B6802226B
:101F4C0083F83D207B681B685B68FB607B681B68C3
:101F5C009B68BB60FB6823F07003FB603B681B68ED
:101F6C00FA681343FB607B681B68FA685A607B68ED
:101F7C001B68144A934209D07B681B68B3F1804FED
:101F8C0004D07B681B68104A93420CD1BB6823F0C9
:101F9C008003BB603B685B68BA681343BB607B68BB
:101FAC001B68BA689A607B68012283F83D207B68C5
:101FBC00002283F83C20002318461437BD4680BC11
:101FCC00704700BF002C01400004004080B483B077
:101FDC0000AF786000BF0C37BD4680BC704780B442
:101FEC0083B000AF786000BF0C37BD4680BC704733
:101FFC0070B500260C4D0D4C641BA410A64209D1E3
:10200C0000F022F800260A4D0A4C641BA410A642CC
:10201C0005D170BD55F8043B98470136EEE755F8ED
:10202C00043B98470136F2E7902000089020000806
:10203C00902000089420000803460244934200D1EB
:10204C00704703F8011BF9E7F8B500BFF8BC08BCF2
:10205C009E467047F8B500BFF8BC08BC9E4670475A
:10206C00000000000000000001020304060708093C
:10207C0002030405060708090A0B0C0D0E0F1010BD
:04208C00010200004D
:042090003101000812
:042094000D01000832
:102098000F000000080000003200000001000000EE
:1020A8000500000000000000080000000400000017
:0C20B80000127A0010000000010000007F
:04000005080009C125
:00000001FF
